S01200004370453330314C3945322E737265638A
S11300000C9434000C9449000C9449000C9449005D
S11300100C9449000C9449000C9449000C94490038
S11300200C9449000C9449000C9449000C94490028
S11300300C9449000C9449000C9449000C94490018
S11300400C9449000C9449000C9449000C94490008
S11300500C9449000C9449000C9449000C944900F8
S11300600C9449000C94490011241FBECFEFD8E032
S1130070DEBFCDBF11E0A0E0B1E0E2EEF7E002C0E8
S113008005900D92A032B107D9F70E94DF000C94BD
S1130090EF030C9400008BB9289829982A9A82E0DF
S11300A08A95F1F700C02A9887EC90E00197F1F760
S11300B000C0000008958BB9289A29982A9A82E0F2
S11300C08A95F1F700C02A9887EC90E00197F1F740
S11300D000C0000008958FEF8AB984B1876084B9A5
S11300E02A988FE99FE00197F1F700C0000088E3A8
S11300F08BB9289829982A9A92E09A95F1F700C02A
S11301002A9887EC90E00197F1F700C000008EE098
S11301108BB9289829982A9A92E09A95F1F700C009
S11301202A9887EC90E00197F1F700C0000081E085
S11301308BB9289829982A9A92E09A95F1F700C0E9
S11301402A9887EC90E00197F1F700C000008FE94E
S11301509FE00197F1F700C0000086E08BB9289872
S113016029982A9A92E09A95F1F700C02A9887EC88
S113017090E00197F1F700C00000089576B126B130
S113018066B156B146B136B183B1E3B1E87080715E
S113019090E08E2B880F991F880F991F880F991F45
S11301A0E22FE270272F21702E2B6470262B5870BB
S11301B0252B4071242B3072232B822B089587B179
S11301C0806387B984B1886184B988B18F6388B941
S11301D085B1886185B90E946B0080E80E944B005C
S11301E087EC90E00197F1F700C00000D1E372E3DF
S11301F0E72EE3E3FE2E02E010EC88B18F7088B99D
S113020085B115B836B186B126B196B146B146B1BD
S113021043B143B1482F4270832F8170842B2470E3
S1130220822B9870892B8F3041F79FE7E8E3F1E048
S11302309150E040F040E1F700C0000036B186B1D3
S113024026B196B146B146B143B143B1482F42708D
S1130250832F8170842B2470822B9870892B8F308C
S113026021F32FE788E391E0215080409040E1F7AB
S113027000C0000036B186B126B196B146B146B190
S113028043B143B1482F4270832F8170842B247073
S1130290822B9870892B8F3041F288B18F6288B994
S11302A085B1886185B926B136B196B186B146B1BA
S11302B046B143B143B132702170232B9470922B19
S11302C08870892B8BB9289A29982A9AE2E0EA95B2
S11302D0F1F700C02A9887EC90E00197F1F700C08D
S11302E0000088B18F6188B985B1886185B926B16C
S11302F036B196B186B146B146B143B143B132701D
S11303002170232B9470922B8870892B8BB9289A97
S113031029982A9A92E09A95F1F700C02A98E7EC76
S1130320F0E03197F1F700C0000088B18F6388B91D
S11303302C9A26B136B196B186B146B146B143B1D5
S113034043B132702170232B9470922B8870892BC7
S11303508BB9289A29982A9AF2E0FA95F1F700C005
S11303602A9887EC90E00197F1F700C0000088B16B
S11303708F6388B92B9A26B136B196B186B146B14E
S113038046B143B143B132702170232B9470922B48
S11303908870892B8BB9289A29982A9A92E09A9581
S11303A0F1F700C02A98E7ECF0E03197F1F700C0CC
S11303B00000DBB9289A29982A9AF2E0FA95F1F715
S11303C000C02A9887EC90E00197F1F700C0000084
S11303D0E6B1F6B176B146B136B126B183B1A3B177
S11303E0A870807190E08A2B880F991F880F991F3D
S11303F0880F991FF270E170EF2B74707E2B487098
S1130400472B3071342B2072232B822B8BB9289AE3
S113041029982A9A92E09A95F1F700C02A98E7EC75
S1130420F0E03197F1F700C0000088B18F7288B90D
S113043085B1887185B9E6B1F6B176B146B136B108
S113044026B183B1A3B1A870807190E08A2B880F84
S1130450991F880F991F880F991FF270E170EF2B75
S113046074707E2B4870472B3071342B2072232BF1
S1130470822B8BB9289A29982A9AF2E0FA95F1F7F7
S113048000C02A9887EC90E00197F1F700C00000C3
S113049026B136B196B186B146B146B143B143B146
S11304A032702170232B9470922B8870892B8F309B
S11304B009F474C080E090E0C0E0880F991F880FB1
S11304C0991FFC01E050FF4F2381222309F495CEAC
S11304D01BB9289829982A9A92E09A95F1F700C0B6
S11304E02A98E7ECF0E03197F1F700C0000087ECC0
S11304F090E00197F1F700C0000090E080E28BB932
S1130500289A29982A9AE2E0EA95F1F700C02A98F5
S1130510E7ECF0E03197F1F700C000009F5FE92FAE
S1130520F0E0E45EFE4F80818111E9CF2BB9289A77
S113053029982A9AF2E0FA95F1F700C02A9887ECF4
S113054090E00197F1F700C0000090E080E28BB9E1
S1130550289A29982A9AE2E0EA95F1F700C02A98A5
S1130560E7ECF0E03197F1F700C000009F5FE92F5E
S1130570F0E0E05FFE4F80818111E9CF0BB928984C
S113058029982A9AF2E0FA95F1F700C02A9887ECA4
S113059090E00197F1F700C000002FCEEBB8289A45
S11305A029982A9A92E09A95F1F700C02A98E7ECE4
S11305B0F0E03197F1F700C00000E6B1F6B176B192
S11305C046B136B126B183B1A3B1A870807190E071
S11305D08A2B880F991F880F991F880F991FF27013
S11305E0E170EF2B74707E2B4870472B3071342BE5
S11305F02072232B822B8BB9289A29982A9AF2E00D
S1130600FA95F1F700C02A9887EC90E00197F1F78A
S113061000C0000088B18F6188B985B1886185B94F
S1130620E6B1F6B176B146B136B126B183B1A3B124
S1130630A870807190E08A2B880F991F880F991FEA
S1130640880F991FF270E170EF2B74707E2B487045
S1130650472B3071342B2072232B822B8BB9289A91
S113066029982A9A92E09A95F1F700C02A98E7EC23
S1130670F0E03197F1F700C0000026B136B196B131
S113068086B146B146B143B143B132702170232BD8
S11306909470922B8870892B8F3021F081E090E048
S11306A0C1E00BCFFBB8289A29982A9AF2E0FA9570
S11306B0F1F700C02A9887EC90E00197F1F700C0A9
S11306C00000E6B1F6B176B146B136B126B183B1D8
S11306D0A3B1A870807190E08A2B880F991F880FAE
S11306E0991F880F991FF270E170EF2B74707E2BA5
S11306F04870472B3071342B2072232B822B8BB9FB
S1130700289A29982A9A92E09A95F1F700C02A9893
S1130710E7ECF0E03197F1F700C0000088B18F6397
S113072088B92C9AE6B1F6B176B146B136B126B1A4
S113073083B1A3B1A870807190E08A2B880F991FB0
S1130740880F991F880F991FF270E170EF2B747056
S11307507E2B4870472B3071342B2072232B822B35
S11307608BB9289A29982A9AF2E0FA95F1F700C0F1
S11307702A9887EC90E00197F1F700C0000026B1B9
S113078036B196B186B146B146B143B143B1327088
S11307902170232B9470922B8870892B8F3021F039
S11307A082E090E0C2E089CE84E30E945B000E9474
S11307B0BE000E945B0088B18F6388B92B9A0E94A7
S11307C0BE000E945B000E94BE008F708F3021F03B
S11307D083E090E0C3E071CE8C2F90E06ECEF8946D
S10507E0FFCF45
S11307E23031323334353637383941424344454661
S11307F22077617320707265737365642020000032
S9030000FC
