:100000000C9434000C943E000C943E000C943E0082
:100010000C943E000C943E000C943E000C943E0068
:100020000C943E000C943E000C943E000C943E0058
:100030000C943E000C943E000C943E000C943E0048
:100040000C943E000C943E000C943E000C943E0038
:100050000C943E000C943E000C943E000C943E0028
:100060000C943E000C943E0011241FBECFEFD8E04C
:10007000DEBFCDBF0E9440000C945C000C940000D9
:1000800082E084B92AE130E030938900209388002F
:1000900091EC90938000809381008AE1E8E8F0E0A1
:1000A000282F30E031832083AFE4B3EC1197F1F7D0
:0C00B00000C000008F5FF4CFF894FFCF79
:00000001FF
