S01200004370453330314C3645312E737265638E
S11300000C9434000C943E000C943E000C943E007E
S11300100C943E000C943E000C943E000C943E0064
S11300200C943E000C943E000C943E000C943E0054
S11300300C943E000C943E000C943E000C943E0044
S11300400C943E000C943E000C943E000C943E0034
S11300500C943E000C943E000C943E000C943E0024
S11300600C943E000C943E0011241FBECFEFD8E048
S1130070DEBFCDBF0E9440000C9452000C940000DF
S113008080E68AB98FEF87BD91EC94BD9BE095BD66
S113009087BD8FE493EC0197F1F700C0000080E680
S10B00A08AB9FECFF894FFCFEA
S9030000FC
