:1000000071C0000086C0000084C0000082C00000F3
:1000100080C000007EC000007CC000007AC00000EC
:1000200078C0000076C0000074C0000072C00000FC
:1000300070C000006EC000006CC000006AC000000C
:1000400068C0000066C0000064C0000062C000001C
:1000500060C000005EC000005CC000005AC000002C
:1000600058C0000056C0000054C0000052C000003C
:1000700050C000004EC000004CC000004AC000004C
:1000800048C0000046C0000044C0000042C000005C
:1000900040C000003EC000003CC000003AC000006C
:1000A00038C0000036C0000034C0000032C000007C
:1000B00030C000002EC000002CC000002AC000008C
:1000C00028C0000026C0000024C0000022C000009C
:1000D00020C000001EC000001CC000001AC00000AC
:1000E00018C0000011241FBECFEFD1E2DEBFCDBF8C
:1000F00000E00CBF12E0A0E0B2E0E8E4F4E000E0D1
:100100000BBF02C007900D92AA35B107D9F771D085
:1001100099C176CF80930201289829982A9A82E083
:100120008A95F1F700C02A9887EC90E00197F1F7E3
:1001300000C00000089580930201289A29982A9A05
:1001400082E08A95F1F700C02A9887EC90E0019749
:10015000F1F700C0000008958FEF8093010184B192
:10016000876084B92A988FE99FE00197F1F700C072
:10017000000088E3CFDF8EE0CDDF81E0CBDF8FE9C9
:100180009FE00197F1F700C0000086E0C3CF08951B
:10019000CF93DF931F921F92CDB7DEB790E899837C
:1001A00090EC9A838150FE01E60FF11D9081890F3A
:1001B000B1DF87EC90E00197F1F700C000000F90ED
:1001C0000F90DF91CF9108950F931F93CF93FC0170
:1001D0008081882351F08F01C0E0ADDFCF5FF8014F
:1001E000EC0FF11D80818111F8CFCF911F910F91FC
:1001F0000895CF93DF9300D01F921F92CDB7DEB743
:10020000ABDF8FE081B98FEF82B961E081E0C0DFC1
:1002100080E192E0D9DF62E081E0BADF80E292E043
:10022000D3DFF12C0F2EFEEF8F2EF02D712C0F2E21
:10023000FDEF5F2EF02D662463940F2EFBEF2F2E23
:10024000F02D6894992491F80F2EF7EF3F2EF02DA2
:100250000F2EF3E04F2EF02D5E0125E0A20EB11C13
:1002600082B1807F82B980B1807F803FC9F78FE7FC
:1002700098E3E1E081509040E040E1F700C00000E9
:1002800080B1807F803F99F3FFE728E381E0F15060
:1002900020408040E1F700C0000080B1807F803FB7
:1002A00031F382B880B180B1807F803FA9F452B829
:1002B00080B180B1807F803F89F422B880B180B165
:1002C000807F803F69F432B880B180B1807F803F09
:1002D00009F440C0E42C05C0E72C03C0E62C01C0A3
:1002E000E92C803E89F4EE2DF0E0EE0FFF1FEE0FBB
:1002F000FF1FE050FE4F8081E1E0F0E0EC0FFD1FBA
:10030000EF0DF11D808336C0803D89F4EE2DF0E0C5
:10031000EE0FFF1FEE0FFF1FE050FE4F8181E1E067
:10032000F0E0EC0FFD1FEF0DF11D808323C0803B3B
:1003300089F4EE2DF0E0EE0FFF1FEE0FFF1FE050EF
:10034000FE4F8281E1E0F0E0EC0FFD1FEF0DF11DAB
:10035000808310C0EE2DF0E0EE0FFF1FEE0FFF1FA9
:10036000E050FE4F8381E1E0F0E0EC0FFD1FEF0D68
:10037000F11D808311E01F0DFE01E10FF11D0081D1
:10038000802FD9DE053409F059C088E5D4DE692D07
:10039000862DFEDE89818033F9F48A818433E1F48D
:1003A0008B818233C9F48C818933B1F487E292E086
:1003B0000BDF692D862DECDE9FEFE3EDF0E391502E
:1003C000E040F040E1F700C0000088E392E0FCDE8E
:1003D000692D87E0DDDE30C089E492E0F5DE692D2D
:1003E000862DD6DE2FEF83ED90E3215080409040A4
:1003F000E1F700C0000088E392E0E6DE692D87E0C7
:10040000C7DE1AC0692D87E0C3DEFE0132966F0198
:100410008E010F5F1F4FF60181916F01F8018193EB
:100420008F0189DE0A151B05B1F780E284DE80E1C9
:1004300071DE80E16FDE14CFF72C12CF153010F78C
:08044000F12E0ECFF894FFCF5E
:1004480031323355343536443738395343304845DB
:10045800456E7465722070617373636F64653A00EA
:10046800636F64653A200020204C6F636B204F70E7
:10047800656E656420202000636F64653A20202043
:1004880020202020202020200020496E636F7272D7
:0A04980065637420436F6465200063
:00000001FF
