S01300004370453330314C384533612E7372656328
S11300000C9434000C943E000C943E000C943E007E
S11300100C943E000C943E000C943E000C943E0064
S11300200C943E000C943E000C943E000C943E0054
S11300300C943E000C943E000C943E000C943E0044
S11300400C943E000C943E000C943E000C943E0034
S11300500C943E000C943E000C943E000C943E0024
S11300600C943E000C943E0011241FBECFEFD8E048
S1130070DEBFCDBF0E9440000C94BF000C94000072
S11300801AB88FEF8BB984B980E29EE4909387000D
S113009080938600E0E8F0E0808182688083E1E874
S11300A0F0E080818A61808386E099E09093890002
S11300B080938800E8E8F0E080E199E0AEEBB5E0F9
S11300C067EB73E049E057E02CE632E091838083EC
S11300D01FEFC9E6D8E11150C040D040E1F700C09D
S11300E00000B183A0831FEFC3EDD0E31150C040E3
S11300F0D040E1F700C00000918380831FEFC9E680
S1130100D8E11150C040D040E1F700C00000718335
S113011060831FEFC9E6D8E11150C040D040E1F739
S113012000C00000518340831FEFC3EDD0E31150A2
S1130130C040D040E1F700C00000918380831FEFEE
S1130140C9E6D8E11150C040D040E1F700C000003A
S1130150318320831FEFC9E6D8E11150C040D0405D
S1130160E1F700C00000918380831FEFC3EDD0E36B
S11301701150C040D040E1F700C00000A7CFF89470
S1050180FFCFAB
S9030000FC
