:100000000C9434000C9446000C9446000C9446006A
:100010000C9446000C9446000C9446000C94460048
:100020000C9446000C9446000C9446000C94460038
:100030000C9446000C9446000C9446000C94460028
:100040000C9446000C9446000C9461000C944600FD
:100050000C9446000C9446000C9446000C94460008
:100060000C9446000C94460011241FBECFEFD8E03C
:10007000DEBFCDBF21E0A0E0B1E001C01D92A13004
:10008000B207E1F70E9455000C94AE000C940000FA
:1000900088ED8093C10086E08093C20083E390E006
:1000A0009093C5008093C40008950E9448007894FE
:1000B000FFCFE0ECF0E0908195FFFDCF8093C6008C
:1000C00008951F920F920FB60F9211242F933F9312
:1000D0004F935F936F937F938F939F93AF93BF9350
:1000E000EF93FF938091C6008093000180910001FF
:1000F000813450F0809100018B3530F48091000103
:10010000805E8093000115C0209100019091000154
:1001100081E09B3708F080E0882359F081E02136A8
:1001200008F480E0882329F08091000180528093B8
:100130000001809100010E945900FF91EF91BF9151
:10014000AF919F918F917F916F915F914F913F916F
:100150002F910F900FBE0F901F901895F894FFCF1E
:00000001FF
