S01200004370453330314C3745332E737265638B
S113000071C0000081C000007FC000007DC00000FE
S11300107BC0000079C0000077C0000075C00000FC
S113002073C0000071C000006FC000006DC000000C
S11300306BC0000069C0000067C0000065C000001C
S113004063C0000061C000005FC000005DC000002C
S11300505BC0000059C0000057C0000055C000003C
S113006053C0000051C000004FC000004DC000004C
S11300704BC0000049C0000047C0000045C000005C
S113008043C0000041C000003FC000003DC000006C
S113009051C0000039C0000037C0000035C0000066
S11300A033C0000031C000002FC000002DC000008C
S11300B02BC0000029C0000027C0000025C000009C
S11300C023C0000021C000001FC000001DC00000AC
S11300D01BC0000019C0000017C0000015C00000BC
S11300E013C0000011241FBECFEFD1E2DEBFCDBF8D
S11300F000E00CBF22E0A0E0B2E001C01D92A130FC
S1130100B207E1F767D06DC07BCF88E98093C9005F
S113011086E08093CA0083E390E09093CD008093BF
S1130120CC000895E8ECF0E0908195FFFDCF80933A
S1130130CE0008951F920F920FB60F9211240BB6A2
S11301400F922F933F934F935F936F937F938F936C
S11301509F93AF93BF93EF93FF938091CE008093CF
S1130160000280910002813450F0809100028B35AE
S113017030F480910002805E8093000215C02091CB
S113018000029091000281E09B3708F080E0882310
S113019059F081E0213608F480E0882329F0809129
S11301A0000280528093000280910002BBDFFF9125
S11301B0EF91BF91AF919F918F917F916F915F91DB
S11301C04F913F912F910F900BBE0F900FBE0F9048
S11301D01F9018959ADF7894C1E4CF5F8C2FA2DF2B
S10901E0FCCFF894FFCFF0
S9030000FC
