:1000000071C0000086C0000084C0000082C00000F3
:1000100080C000007EC000007CC000007AC00000EC
:1000200078C0000076C0000074C0000072C00000FC
:1000300070C000006EC000006CC000006AC000000C
:1000400068C0000066C0000064C0000062C000001C
:1000500060C000005EC000005CC000005AC000002C
:1000600058C0000056C0000054C0000052C000003C
:1000700050C000004EC000004CC000004AC000004C
:1000800048C0000046C0000044C0000042C000005C
:1000900040C000003EC000003CC000003AC000006C
:1000A00038C0000036C0000034C0000032C000007C
:1000B00030C000002EC000002CC000002AC000008C
:1000C00028C0000026C0000024C0000022C000009C
:1000D00020C000001EC000001CC000001AC00000AC
:1000E00018C0000011241FBECFEFD1E2DEBFCDBF8C
:1000F00000E00CBF12E0A0E0B2E0E6E1F2E000E0D8
:100100000BBF02C007900D92A232B107D9F771D090
:1001100080C076CF80930201289829982A9A82E09D
:100120008A95F1F700C02A9887EC90E00197F1F7E3
:1001300000C00000089580930201289A29982A9A05
:1001400082E08A95F1F700C02A9887EC90E0019749
:10015000F1F700C0000008958FEF8093010184B192
:10016000876084B92A988FE99FE00197F1F700C072
:10017000000088E3CFDF8EE0CDDF81E0CBDF8FE9C9
:100180009FE00197F1F700C0000086E0C3CF08951B
:10019000CF93DF931F921F92CDB7DEB790E899837C
:1001A00090EC9A838150FE01E60FF11D9081890F3A
:1001B000B1DF87EC90E00197F1F700C000000F90ED
:1001C0000F90DF91CF9108950F931F93CF93FC0170
:1001D0008081882351F08F01C0E0ADDFCF5FF8014F
:1001E000EC0FF11D80818111F8CFCF911F910F91FC
:1001F0000895B2DF61E081E0CBDF80E092E0E4DFF0
:1002000062E081E0C5DF80E192E0DEDF80E090E047
:060210000895F894FFCFF1
:1002160053696B6F72736B692C204A61736F6E0042
:10022600204370453330313A204C6162203920201A
:020236000000C6
:00000001FF
