S01200004370453330314C3945312E737265638B
S11300000C9434000C9449000C9449000C9449005D
S11300100C9449000C9449000C9449000C94490038
S11300200C9449000C9449000C9449000C94490028
S11300300C9449000C9449000C9449000C94490018
S11300400C9449000C9449000C9449000C94490008
S11300500C9449000C9449000C9449000C944900F8
S11300600C9449000C94490011241FBECFEFD8E032
S1130070DEBFCDBF11E0A0E0B1E0E6EAF1E002C0EE
S113008005900D92A232B107D9F70E94BC000C94DE
S1130090D1000C9400008BB9289829982A9A82E000
S11300A08A95F1F700C02A9887EC90E00197F1F760
S11300B000C0000008958BB9289A29982A9A82E0F2
S11300C08A95F1F700C02A9887EC90E00197F1F740
S11300D000C0000008958FEF8AB984B1876084B9A5
S11300E02A988FE99FE00197F1F700C0000088E3A8
S11300F00E944B008EE00E944B0081E00E944B0066
S11301008FE99FE00197F1F700C0000086E00E94AC
S11301104B000895CF93DF9300D0CDB7DEB790E8BE
S1130120998390EC9A838150FE01E60FF11D908132
S1130130890F0E944B0087EC90E00197F1F700C013
S113014000000F900F90DF91CF9108950F931F93AC
S1130150CF93FC018081882359F08F01C0E00E9475
S11301605B00CF5FF801EC0FF11D80818111F7CFA7
S1130170CF911F910F9108950E946B0061E081E07F
S11301800E948A0080E091E00E94A60062E081E083
S11301900E948A0080E191E00E94A60080E090E045
S10901A00895F894FFCF5E
S11301A653696B6F72736B692C204A61736F6E00AF
S11301B6204370453330313A204C61622039202087
S10501C6000033
S9030000FC
